:020000040800F2
:10000000B011002085020008C7450008673A0008C3
:10001000C3450008793100084D5700080000000072
:10002000000000000000000000000000D1530008A4
:10003000DD3200080000000055520008BD540008E1
:100040009F0200089F0200089F0200089F0200080C
:100050009F0200089F0200089F0200089F020008FC
:100060009F0200089F0200089F0200089F020008EC
:100070009F0200089F0200089F0200089F020008DC
:100080009F0200089F0200089F0200089F020008CC
:100090009F0200089F0200089F0200089F020008BC
:1000A0009F0200089F0200089F0200089F020008AC
:1000B0009F0200089F0200089F0200089F0200089C
:1000C0009F0200089F0200089F0200089F0200088C
:1000D0009F020008215500083D5500089F020008B6
:1000E000E13600089F0200089F02000800F002F8B5
:1000F00000F0B8F80AA090E8000C82448344AAF10A
:100100000107DA4501D100F0ADF8AFF2090EBAE807
:100110000F0013F0010F18BFFB1A43F0010318473B
:100120003C7F00005C7F000010F8013B0A4413F0A4
:10013000030408BF10F8014B1D1108BF10F8015B44
:10014000641E05D010F8016B641E01F8016BF9D133
:10015000002D15D010F8014B03F00C030C2BA1EB74
:1001600004040ABF10F8013BA4EB8314A4EB03249E
:1001700005F1010314F8016B5B1E01F8016BF9D561
:10018000914238BF10F8013BD1D3704700230024BF
:1001900000250026103A28BF78C1FBD8520728BF97
:1001A00030C148BF0B6070476E2900F08885702908
:1001B00000F04382662906F0D287652906F0CF87D2
:1001C000672906F0CC87612906F0CB8703681B0AF4
:1001D00028BF41F08001692900F0B481642900F052
:1001E000B181752900F0AE816F2901F084807829F2
:1001F00000F00F82E92901F01F80E42901F01C8042
:10020000F52901F01980EF2901F08180F82900F02B
:100210000E820368DB0928BF41F08001632900F0EA
:10022000A087732900F0A587E32901F0D985F32978
:1002300001F0DE85002070471FB59DE8030000F047
:100240009DFC01F099FB04000020002106F06CFBEE
:10025000401C60600020002106F07CFBE0601FBDB8
:1002600010B510BD01F0B2FE1146FFF7E5FF05F035
:1002700061FD02F013F903B4FFF7F2FF03BC02F0D3
:1002800043F900000948804709480047FEE7FEE7B8
:10029000FEE7FEE7FEE7FEE7FEE7FEE7FEE7FEE736
:1002A00004480549054A064B70470000C154000840
:1002B000ED000008B00B0020B0110020B00D0020B0
:1002C000B00D002070B5064600F038FC056806F158
:1002D0000B0020F00704B4429CBF002070BD2B46E9
:1002E0006A68BAB11068A04210D304F108018842CC
:1002F0003CBF5068586007D35168101941601168BD
:10030000091B016058601460101D70BD13465268CF
:10031000002AE7D12146284600F01CFC0028DED147
:1003200070BD70B50446051F00F008FC0068002C85
:1003300014BF446870BD002C18BFAC423CBF2046BF
:100340006468F8D301680A18AA4218BF456003D14F
:100350002A6805461144016028684119A1421CBF62
:100360006C6070BD6168696021680844286070BD78
:1003700070B50D460646041F00F0E0FBD0F800C043
:10038000C5B1E6B105F10B0020F00703AB423CBF5D
:10039000002070BD2068984238BFDCF8042013D3D9
:1003A000C11A08292FD3E01840F8041B2360FFF777
:1003B000B8FF28E03046FFF7B4FF002070BD2846A4
:1003C000BDE87040FFF77EBF002A18BFA2423CBFC5
:1003D00094465268F8D30119914216D11168084425
:1003E000984212D3C11A08293CBF2060506808D334
:1003F0005168E0184160216812681144C91A01600F
:100400002360CCF80400201D70BD181FFFF75AFFB1
:10041000050007D021680A1F211D00F0C7FA201D22
:10042000FFF77FFF284670BD10B5044600F07EFB45
:100430000068005DC00602D504F1200010BD204612
:1004400010BD00007CB51D4616460C00009001D082
:100450002044401E074B7B442A46694601903046A3
:1004600000F055FE05461CB10020694600F062FE12
:1004700028467CBDE50C00000FB41CB5084B06AA4D
:100480007B4469460090059800F041FE0446002038
:10049000694600F04FFE20461CBC5DF814FB0000CE
:1004A000B10C000070B5044685690068C10601D52D
:1004B000302600E02026C00707D070BDD4E9012116
:1004C00030469047206A401C20626D1EF6D570BDF4
:1004D00070B5044685690078C00707D170BDD4E9BE
:1004E000012120209047206A401C20626D1EF6D515
:1004F00070BD70B50C460546012A05D028788006E7
:1005000000D5EA69002302E0012305E05B1C934269
:1005100002D2E05C0028F9D1A869E618C01AA861E7
:10052000286A184428622846FFF7BCFF04E0D5E992
:10053000012114F8010B9047B442F8D32846FFF785
:10054000C7FF70BD2DE9F0410646002410687529EB
:10055000314616A510D000F047FB002802DA4042D1
:1005600013A507E031688A0701D512A502E0490703
:1005700004D511A5012401E000F03FFB00210A226F
:1005800006F1240709E0B0FBF2FCB0FBF2F302FB3A
:100590001C00303078541846491C0028F3D12346FB
:1005A0002A463046BDE8F04100F030BB00000000B4
:1005B0002D0000002B00000020000000F0B40D46CC
:1005C0000188090502D5214C7C4402E01F4C7C4483
:1005D0000E34002100F1240608E002F00F07120992
:1005E000E75D42EA03721B097754491C52EA03078C
:1005F000F3D102780023120704D5702D06D009B17B
:10060000022311342246F0BC00F000BB0123103459
:10061000F8E770B504460D462146106800F0EDFA83
:10062000024629462046BDE870400023C6E7D21D99
:1006300022F00703D3E90023C0E70368126843F000
:10064000200303600823C3610023B7E79578000007
:100650002DE9F05F894604464FF0000ADFF874B1D7
:10066000FB44C0F820A02046E1688847002874D0E9
:10067000252806D0D4E901219047206A401C206239
:10068000F1E700265F462046E168884720280546B6
:1006900007DB312D05D2781910F8200C08B106437C
:1006A000F1E7B00701D526F00406C4F81CA0002726
:1006B000C4F818A02A2D09D0284605F01AF938B335
:1006C00004EB8708303DC8F8185019E059F8041BAE
:1006D000204604EB87029161E1688847012F0546B7
:1006E00018D1E069002820DA26F020061DE0D8F8AD
:1006F000180000EB800005EB40003038C8F8180007
:100700002046E1688847054605F0F3F80028EED159
:10071000012F0AD02E2D08D12046E16888477F1C82
:100720000546022F46F02006C4DBA069002803DA44
:10073000404246F00106A061F00701D026F0100605
:100740006C2D0BD0682D09D04C2D39D06A2D35D0A9
:10075000742D35D07A2D33D016E038E0E1682F467D
:1007600020468847B842054609D16C2F26D04FF461
:100770008060E168064320468847054604E06C2F08
:100780001AD04FF4807006430DB3A5F1410019282B
:1007900002D8203546F400664A462946204626609F
:1007A0004E46FFF701FD80B101280BD0F61D26F063
:1007B000070000F1080956E74020E4E78020D8E769
:1007C0000020D6E706F104094DE7284652E7206AE3
:1007D000BDE8F09F2578000070B5064600F0B2F93C
:1007E0000468054630460A22002101F089F82C6091
:1007F00070BD401ECAB210F8011F8A4202D0002903
:10080000F9D10020704710B5431E13F8014F002C9A
:10081000FBD105E011F8014B002C03F8014B03D08C
:10082000521EF7D20021197010BD30B505460B4697
:100830002A4613F8014B12F8010B08B1A042F8D078
:100840001CB1002802D06D1CF1E7284630BD10B560
:10085000431C02E010F8011B71B18107FAD14FF07F
:10086000013202C88C1A8C4314EAC211F9D0C01AA2
:100870000A0603D0C01E10BDC01A10BD0A0401D064
:10088000801E10BD0902FCD0401E10BD40EA0103CD
:1008900070B59B072ED14FF00136042A2AD308C821
:1008A00010C99D1B9D43121F15EAC61517D0D8B25B
:1008B000E1B2401A50EA056110D198B2A1B2401AD3
:1008C00050EA05410AD123F07F4024F07F41401ACD
:1008D00050EA052102D1180EA0EB146070BDA342AE
:1008E000DBD018BA21BA884201D9012070BD4FF07F
:1008F000FF3070BD0AB9002070BD10F8013B11F83F
:10090000014B63B1A3420AD1521E08D010F8013B3B
:1009100011F8014B1BB1A34201D1521EEDD1181B9E
:1009200070BD032A40F2308010F0030C00F01580F7
:1009300011F8013BBCF1020F624498BF11F801CBE2
:1009400000F8013B38BF11F8013BA2F1040298BF47
:1009500000F801CB38BF00F8013B11F0030300F0B1
:100960002580083AC0F0088051F8043B083A51F855
:1009700004CBA0E80810F5E7121D5CBF51F8043B5A
:1009800040F8043BAFF30080D20724BF11F8013BCD
:1009900011F801CB48BF11F8012B24BF00F8013B2F
:1009A00000F801CB48BF00F8012B704710B5203A82
:1009B000C0F00B80B1E81850203AA0E81850B1E818
:1009C0001850A0E81850BFF4F5AF5FEA027C24BFCE
:1009D000B1E81850A0E8185044BF18C918C0BDE8C5
:1009E00010405FEA827C24BF51F8043B40F8043B8E
:1009F00008BF7047D20728BF31F8023B48BF11F843
:100A0000012B28BF20F8023B48BF00F8012B70479C
:100A10004FF000020429C0F0128010F0030C00F027
:100A20001B80CCF1040CBCF1020F18BF00F8012BA5
:100A3000A8BF20F8022BA1EB0C0100F00DB85FEA73
:100A4000C17C24BF00F8012B00F8012B48BF00F83F
:100A5000012B70474FF0000200B5134694469646AE
:100A6000203922BFA0E80C50A0E80C50B1F12001C1
:100A7000BFF4F7AF090728BFA0E80C5048BF0CC06F
:100A80005DF804EB890028BF40F8042B08BF7047CD
:100A900048BF20F8022B11F0804F18BF00F8012B3F
:100AA000704700004FF0013C50F8042B51F8043B14
:100AB0009A4221D1A2EB0C03934313EACC1317D132
:100AC00050F8042B51F8043B9A4215D1A2EB0C03C9
:100AD000934313EACC130BD150F8042B51F8043B89
:100AE0009A4209D1A2EB0C03934313EACC13DBD057
:100AF0004FF00000704700BFD01A01BAB1FA81F17F
:100B000001F0180122FA01F0CB40C1F12001DBB263
:100B1000C0B2C01A2CFA01F3D11A914311EAC311E1
:100B2000E6D17047704770477047000010B500F07D
:100B300023FF001D10BD00BFF15D0000004870479D
:100B4000540B0020004870474C0B00207047704742
:100B50007047704738B504460A4600206946AFF32F
:100B60000080002808BF38BD02460099204600F0EA
:100B700007FF012038BD012001F020BAF8B5AFF31E
:100B80000080054600200C46102000BF0646A8192C
:100B9000A0420DD9324669460020AFF3008007001D
:100BA00008BF01F00BFA0098A04218BF0546C4190F
:100BB000FFF7C4FF05600746F01D20F00700461947
:100BC000284600F00AF8B44208BFF8BDA21B31461F
:100BD0003868BDE8F84000F0D3BE00210160C0E9EC
:100BE000011070471020704709684A0501D540B2CE
:100BF0007047C905FCD500B2704709684A0501D5A0
:100C0000C0B27047C905FCD580B270472DE9F047E6
:100C10000D4699469246044600F12408016888066C
:100C200004D5E06921F01001216000E00120A84214
:100C300001DD471B00E00027A1697A1902EB0900DA
:100C4000081AA0612078C00602D42046FFF72AFCCB
:100C5000002608E0D4E901211AF806009047206A2E
:100C6000401C761C20624E45F4DB2078C0060AD575
:100C70002046FFF717FC06E0D4E901213020904719
:100C8000206A401C2062381EA7F10107F4DC07E04F
:100C9000D4E9012118F805009047206A401C206221
:100CA000281EA5F10105F3DC2046FFF711FC207892
:100CB000000602D50220BDE8F0870120FBE711689D
:100CC0000268006A530501D508700AE0D30501D512
:100CD000088006E0130603D5C217C1E9000200E050
:100CE00008600120704770472DE9FF4F0C461E46F3
:100CF0004FF0FF378BB0D2E90001DDF860800A9039
:100D00008A46C1F30A5505B93D46002108464FF011
:100D10000000BAF1000F00F4400005DA00EB80009B
:100D20004FF4400101EA50004FEA9059B9F1010F28
:100D300000DDB9460A9850EA4A000ED044F6105039
:100D4000A5F2FF3545432F14B8F1000F1ED07542B0
:100D5000291E1EDDC9F100021CE0B8F1010F4FF0A1
:100D6000000001D0302103E0F24305E02154401C93
:100D7000B042FBDB30460022002121540B99C1F820
:100D80000880C1E900200FB0BDE8F08FBD1B6D1CCD
:100D9000DEE74A4600DA694206A801F07DF806ABB4
:100DA00093E8070003AB83E8070050460A9901F077
:100DB000E4FB8DE80700A0F500501F380090039871
:100DC000002D0ADD42F21F014A460844002303A910
:100DD0000390684601F090FE09E0A0F500504A46F5
:100DE0001F38002303A90390684601F0AFFE8DE889
:100DF00007000004000C03D04FF0FF30410800E072
:100E00001046B8F1000F03D00022009215461EE0F4
:100E1000751E05D400F0CEFD303262556D1EF9D539
:100E2000B3460122084302D000227F1C04E0207850
:100E3000302801D100227F1E002A099784D01DE0AE
:100E4000112D07DA00F0B6FD303262556D1C50EA04
:100E50000102F5D1084302D00098C8B10EE000218C
:100E6000681E05E0235C625C63542254401E491CEA
:100E70008142F7DBAB46A81B401E0990002004F816
:100E80000B000B98099AC0F80880C0E9002B7AE79C
:100E900011264FF0000857E72DE9F04F8846044629
:100EA000D21D22F0070191B0D1E90001CDE90A017C
:100EB00004F08BFC02460B98C00F01D02D2007E0F8
:100EC0002068810701D52B2002E0202101EAC00023
:100ED000032A099001D0072A05DB03464146204634
:100EE00000F034FF0BE12078800601D5E06900E0D6
:100EF0000620B8F1650F814606D0B8F1660F18D00C
:100F0000B8F1670F70D131E00020B9F1110F0090F6
:100F100001DB112301E009F101030AAA01A90CA8D0
:100F2000FFF7E2FEDDE90C70002609F101058346BA
:100F300047E001204B4600904FF000470AAA01A964
:100F40000CA8FFF7D1FEDDE90DB00C995D46002637
:100F500010B909F101000D18B9EB050003D4C0F177
:100F6000FF3609F10105A5EB09002BE0B9F1010FEE
:100F700001DA4FF001090020B9F1110F0090484645
:100F800001DD112300E003460AAA01A90CA8FFF71E
:100F9000ABFEDDE90C704D46002683462078000745
:100FA0000AD4AB4500DA5D4601A8012D04DD4119E4
:100FB00011F8011C302907D04F4502DA17F1040F50
:100FC00004DA012082460FE06D1EEEE7002F02DCFE
:100FD000ED1B3E4403E0781CA84200DD7D1CB81BDD
:100FE00000F1010A4FF000472078000703D4AA451A
:100FF00001DB4FF0FF3A0021B7F1004F0DF143083C
:101000008DF8431024D002202B23002F01DA7F42D9
:101010002D230A21021EA0F1010000DC5FB197FB25
:10102000F1FC97FBF1F201FB1C7C17460CF1300C34
:1010300008F801CDEEE7A8F1010003702188090549
:1010400001D5452100E06521A0F1010800F8011C4F
:1010500009980FA9A1EB0807FF1D00B10120411954
:1010600001EBEA70A1693844081A401EA06120789B
:10107000C00602D42046FFF715FA099828B1D4E932
:1010800001219047206A401C20622078C00622D5AA
:101090002046FFF707FA1EE0002E04DBB34502DD11
:1010A00001A8805D00E03020D4E901219047206A4A
:1010B000401C2062761CAAF101005FEA000A0AD1F6
:1010C00000F05AFCC0680168405CD4E901219047F7
:1010D000206A401C2062281EA5F10105DCDC07E027
:1010E000D4E9012118F8010B9047206A401C2062C6
:1010F000381EA7F10107F3DC2046FFF7E9F90320CA
:1011000011B041E601694A1C02610878704700B5D8
:101110008FB0CDE901310021059105497944CDE930
:10112000031011466846FFF793FA0FB000BD0000A8
:10113000E5FFFFFF0A6802F8010B0A607047D1E97A
:1011400000239A4202D2531C0B601070704710B5F6
:10115000436913B1AFF3008001E0FFF7CAF9012042
:1011600010BD127800F124010A7000224A70012299
:10117000EDE711684FF0FF32E9E700002DE9FF5F6E
:1011800015468A460446DFF8AC80F8440027D8E9C3
:1011900000103E46CDE9001010E03AF816106A46FD
:1011A00002A800F0EBFE411C07D02178890603D588
:1011B000E269391891420DD80744761C20788006E0
:1011C00002D5E069B84205DDAE42E6DB3AF816002A
:1011D0000028E2D1A069C01BA0612046FFF762F998
:1011E000D8E90010CDE90010002017E03AF81810F7
:1011F0006A4602A800F0C2FEB0F1FF3F81460BD064
:1012000000250DF1080B05E0D4E901211BF80500CC
:1012100090476D1C4D45F7D308F10100B042804660
:10122000E4DB206A384420622046FFF751F9BDE82C
:10123000FF9F00000E6D00002DE9F0418046D21D99
:1012400022F007020025D2E90002F52915A614D0E4
:10125000011E72F1000106DA0023D0EB030063EBFC
:10126000020211A608E0D8F800108B0701D50FA6DE
:1012700002E0490701D50EA601251146002408F118
:10128000240704E000F096FB30323A55641C50EA23
:101290000102F7D12B46324621464046BDE8F041D7
:1012A000FFF7B4BC000000002D0000002B00000080
:1012B0002000000030B4002100F1240408E002F016
:1012C0000705D208303542EA4372DB086554491CF1
:1012D00052EA0305F3D10468002310A2250707D5BD
:1012E000A40600D421B1C46901230DA2641EC46107
:1012F00030BCFFF78BBC10B5044621461068FFF7E1
:101300007CFC02462046BDE810400023D2E7D21DF7
:1013100022F00701D1E90023CCE700000000000023
:10132000300000002DE9FF4F06468BB00878FF28FB
:1013300006D0491C2D2805D000244FF0000908E0F4
:1013400000200CE00124F8E709EB8903491C00EBBD
:1013500043090878FF28F7D114B1C9F1000081468C
:10136000107800252C46AA4629462D2801D02B2886
:1013700004D1521C2D2813D0002082468B461078B1
:10138000FF280FD04FF0000C0A21521CA5FB01785A
:1013900004FB018105FB0C11C5194BEB0104EEE7C1
:1013A0000120EAE7002108464FF00000BAF1000FE3
:1013B00002D000EB80004008C0F38157012F01DD0F
:1013C0004FF0FF370E9955EA040009EB01080BD0E6
:1013D0004FF0020918F5FA7F16DA4FEACA70002FAB
:1013E000706008DD012007E04FEACA70C6E900B06E
:1013F0000FB0BDE8F08F00203060FFF7A3FBC0F80E
:1014000000901821084616E0B8F5FA7F18DD002F85
:1014100002DAF748784401E0F6487844D0E9001051
:10142000C6E9001040EACA707060FFF78BFBC0F895
:101430000090142108460FB0BDE8F04F05F08CBEB7
:10144000002108464FF00000B8F10001099002DACF
:10145000C7F1000200E03A4601DAC8F1000106A82F
:1014600000F01AFD06AB93E8070003AB83E8070022
:1014700044F23E005BEA04010090584604D144F275
:101480001E012C465D460091210C0904014306D142
:101490000099240444EA15442D041039009104F005
:1014A0007F41014306D10099240244EA15642D02CC
:1014B0000839009104F07041014306D100992401DC
:1014C00044EA15742D01091F009104F040410143C5
:1014D00006D10099A40044EA9574AD00891E0091DC
:1014E00004F00041084304D100986D196441401E86
:1014F00000904FF001033A466846B8F1000FCDE97D
:10150000014503A902DD01F036FB01E001F009FB12
:10151000BAF1000F04460D4601D084F000440021CA
:1015200008464FF00000099940F2FF77484010F05C
:101530000C0F07D124F00040284303D0C4F30A5015
:10154000B84212D1FFF7FEFAC0F80090C4F30A5077
:10155000B8420AD1A8487844D0E90010C6E9001082
:1015600004F000410843706042E7C6E900543FE7D9
:101570002DE9FF4F1F464FF0000A4FF0FF38454658
:1015800091B0D7E90146CDF83CA000F0F5F9C0686C
:101590000168405C1090B96912986D1C8847396ADF
:1015A000814688470028F6D1B9F1FF3F0AD0002EC6
:1015B00024F4D06411DDB9F12B0F08D0B9F12D0F4F
:1015C0000BD102E0404615B013E744F48064B969DA
:1015D00012986D1C8847761E8146600504A901D5C6
:1015E0002D2000E02B20002E01F1010B0DF1300821
:1015F0008DF810003FDDB9F1690F08D0B9F1490F3E
:1016000005D0B9F16E0F02D0B9F14E0F1CD13B4697
:1016100001A8009580E85002DDE912126FF0020087
:1016200005F005FEC11CCED10EE0B96912986D1C03
:10163000884781461398761E44F4007405600F981D
:10164000401C002E0F9016DDB9F1300FEDD0B9F12E
:10165000780F02D0B9F1580F0DD10F9801280AD197
:101660003B46CDE90054DDE91212001F029605F059
:10167000DCFDC11CA7D1109989453ED144F08004FE
:1016800006E01399681CAAF1010A44F4007408608A
:10169000B9696D1C1298761E884730288146F0D0B3
:1016A0002BE01099894505D1200603D4761E44F01D
:1016B000800418E0484604F01CF908B3761E0DF1CA
:1016C00023018B4544F4007408D2A9F130000BF8D3
:1016D000010B200607D5AAF1010003E0200602D481
:1016E0000AF101008246A00502D51399681C086022
:1016F000B96912986D1C88478146002ED1DC53E0F1
:10170000002E51DDB9F1650F02D0B9F1450F4BD173
:10171000A00549D5B9696D1C1298761E24F4407451
:101720008847002E81460CDD2B2804D0B9F12D0FFF
:1017300007D144F48074B96912986D1C8847761EED
:101740008146E00501D52D2100E02B2108F8011B81
:10175000CDF8008021E0761E0DF13901884544F472
:1017600000740CD2A9F1300010F0FF0088F80000DE
:1017700002D10099884509D908F1010806E0E00581
:1017800001D51E4801E042F20F708246B9691298F5
:101790006D1C8847814613980560002E04DD48467D
:1017A00004F0A7F80028D6D1F96912988847FF20DD
:1017B00053468BF8000088F8000000200A900B9038
:1017C00004AA0CA90AA8FFF7ADFDA00502D46FF08A
:1017D0000100F8E614F0240F12D0E0071CD138689D
:1017E000DDE90A12031D3B600068C0E9001213E046
:1017F0006C6C00005E6C0000226B0000F1D8FFFFF3
:101800000AA9684604F004F8E00705D13868009A90
:10181000011D3960006802602846D4E6426842B182
:10182000016811F8013B23B1521EC0E900121846AD
:1018300070470121C160881E704742685AB1C36871
:10184000016843B983688B4205D0491E521CC0E928
:101850000012002070474FF0FF3070470FB4002394
:1018600000B589B00CA900910B99CB60214B7B444A
:101870000693214B7B44079304236FF00042CDE98C
:1018800001321E4A7A446B4608920246002005F057
:10189000CAFC09B05DF814FB70B506464FF0FF3086
:1018A00015460C46324686B00091CDE901016946E5
:1018B0000020049004A8FFF7D1FF024604982118E5
:1018C00025B108B1084600E02046286004980028A9
:1018D0000DD0002A02DD0098884208D03246081B4D
:1018E00069460094CDE9010404A8FFF7B7FF06B0EC
:1018F00070BD0000ABFFFFFFC3FFFFFFB70100009B
:101900002DE9F04791460F4680460446002614F81C
:10191000015B2DB1FFF70AF90068405DC007F6D101
:101920002B2D02D02D2D18D0641E4A463946204654
:1019300000F062FA27B13968A14201D1C7F80080EE
:101940004FF0020471050BD54042002803DDFFF77C
:10195000F9F80460A007BDE8F08746F48066E4E784
:101960000028F8DAFFF7EEF804606FF00040F2E7C5
:10197000004870474C0B0020004870476C0B00205B
:10198000034640688C46002818BF88423CBF034687
:101990004068F8D318681844884207D00CF1030057
:1019A00020F00700001D411A521A0146081D0A6066
:1019B000FEF7B7BC30B5B0F10A024FEA900E71F1F4
:1019C00000034EEA817EB0EB0E0061EB91014FEA1D
:1019D000101E4EEA017E10EB0E0041EB11114FEA92
:1019E000102E4EEA016E10EB0E0041EB11214FEA72
:1019F000104E4EEA014E10EB0E0041EB1141401823
:101A000041F100014FEAD00040EA41704FEAD101B4
:101A100010EB80054FEA810444EA907444EB010422
:101A20006D1944EB0404521BA3414FF0000348BF5F
:101A30000A3200D530BD401C41F1000130BD10B567
:101A40000446FFF773F80068005D00F0010010BD68
:101A50002DE9F04F04460D46D21D22F0070089B053
:101A6000D0E900974846394603F0AFFE0246F80F2A
:101A700001D02D2307E02068810701D52B2302E048
:101A8000202101EAC0038DF820300BB1012000E0D5
:101A90000020032A824601D0072A04DB294620467B
:101AA00000F054F93FE12078800601D40D2500E0D4
:101AB000E569C7F30A560D2D49DA00214FEA175B95
:101AC00008464FF00000002F00F4400007DA00EB5A
:101AD00080004FF4400100EBD07001EA60008115F6
:101AE000012901DD4FF0FF3100224FEA850CBCF1E6
:101AF000180F06D31346ACF118004FF08052C240C5
:101B000003E04FF4801323FA0CF30CF10C0CBCF13E
:101B1000200F04D3ACF1200C09FA0CF001E007FA15
:101B20000CF000294FF0004801DD18B90FE00ED18C
:101B300040450CD319EB02095F4121B9404502D160
:101B40009F4329EA0209BBEB175F00D0761C20886F
:101B5000000502D57B48784402E07A487844193879
:101B600008AA302302F80A30037C0AF10101002E92
:101B70000AF1020A53546A4602DC4FF0300101E0D8
:101B80004FF031014FF001088DF8001002D0A6F29D
:101B9000FF3603E059EA470100D06B4E002D02DC0E
:101BA0002178090704D54FF002082E218DF8011085
:101BB000C44600210BE0C7F303433F01C35C491C4B
:101BC0006D1E02F80830052908F1010801DA002D20
:101BD000F1DC00210CE000EB1973491C1B786D1E31
:101BE000082902F808304FEA091908F1010801DA5A
:101BF000002DF0DC21688B0602D516E0A8F1010863
:101C0000E04505DD02EB080313F8013C302BF5D06D
:101C1000B8F1000F09DD02EB080313F8013C2E2B8D
:101C200003D1090701D4A8F10108002D05DD3E21EB
:101C300002F808106D1E08F10108407C002E02F821
:101C4000080008F1010804DA2D20764202F80800A5
:101C500002E02B2002F808000A214FF47A70864235
:101C600008F101080BDB96FBF0F3303302F8083083
:101C700096FBF0F308F1010800FB136601E0642E07
:101C80000CDB642096FBF0F3303302F8083096FB4F
:101C9000F0F308F1010800FB136601E00A2E06DBF1
:101CA00096FBF1F0303002F8080008F1010896FBCD
:101CB000F1F001FB1060303002F80800A16908F172
:101CC000010808EB050202EB0A00081AA06120785F
:101CD000C00602D42046FEF7E5FB216A08AE01EB00
:101CE0000A00206204E0D4E9012116F8010B9047B4
:101CF000BAF1010AF7D22078C00602D52046FEF7D5
:101D0000D1FB6E4609E016F8010B3E280FD0D4E94E
:101D100001219047206A401C2062B8F10108F2D2EC
:101D20002046FEF7D5FB09B00320BDE8F08F206AFE
:101D30002844206203E0D4E90121302090476D1E41
:101D4000EBD3F8E75D63000002FCFFFF2DE9F041F3
:101D50001F46044603260168072A01F4006004DBDD
:101D600008B116A505E016A503E008B115A500E029
:101D700015A521F010002060A069C01EA0610FB160
:101D8000401EA0612046FEF78DFB4FB1D4E9012132
:101D900038469047206A401C2062C01C206206E042
:101DA000206AFAE7D4E9012115F8010B9047761E65
:101DB000F8D22046FEF78CFBBDE8F0814E414E0084
:101DC0006E616E00494E4600696E660010B543694B
:101DD00013B1AFF3008001E0FFF7D0F9012010BD8F
:101DE000128800F1240182840022C2840122EDE7DE
:101DF00011684FF0FF32E9E72DE9F05F82461546A2
:101E00008B4600270AF10104B9460078302801D03A
:101E10009DB113E014F8010B0127782803D058284E
:101E200001D045B10AE00DB1102D07D1002714F8FB
:101E3000010B102502E0082500E00A250026B04627
:101E40000EE005FB080005FB06F101271FFA80F8EC
:101E500001EB1046B6F5803F00D3B94614F8010BEC
:101E6000294600F0E3F80028EBDABBF1000F05D0BB
:101E70000FB1641E00E05446CBF80040B9F1000FEA
:101E800006D0FEF75FFE02210160C81EBDE8F09F8C
:101E900048EA0640FAE700002DE9F0478146164679
:101EA0008AB0354878440DC88DE80D003248784432
:101EB000801C03AC0DC884E80D0041F69B3008443B
:101EC000372190FBF1F290FBF1F5A5F1800501FBC4
:101ED00012041B3C02D56442012000E00020DFF820
:101EE00098A080460027FA44AAF1BE0A0EE0E00757
:101EF0000AD03246684607EB470101230AEB81010D
:101F000000F024FE8DE8070064107F1C002CEED149
:101F1000194F7F44AE3F19E0E80715D007EB0410D6
:101F20000DF1180A90E80E008AE80E00C068F04231
:101F300001D1981908903246012306A903A800F0A0
:101F400005FE03AB83E807006D10641C002DE3D190
:101F50004FF0010332466946B8F1000F03A802D0E2
:101F600000F0CAFD01E000F0F1FDC9E90001C9F887
:101F700008200AB0BDE8F087A060000070B51646E2
:101F80000C460546FEF7D2FD036893F801010128CF
:101F900006D0FF2C0FD8185D68B101202C7070BDE1
:101FA000D3F807013246214603F2071303442846BB
:101FB000BDE8704018474FF0FF3070BD10B500F01D
:101FC0007BFABDE8104000F072BA70477546FFF723
:101FD000CFFCAE4605006946534620F00700854613
:101FE00018B020B5FEF75CF9BDE820404FF00006C0
:101FF0004FF000074FF000084FF0000B21F00701F1
:10200000AC46ACE8C009ACE8C009ACE8C009ACE833
:10201000C0098D46704710B5FEF794FD006810BDED
:1020200010B50446FEF78EFD046010BD3A2800D2BC
:10203000303820F02002412A01D3A2F13700884233
:1020400001D34FF0FF3070472DE9FF4F1F464FF08F
:102050003C0987B04FF00042DDE9141001F101089E
:10206000DDF858A002EA4050039000200590834616
:10207000054604460490B969461E08988847AAF1A7
:10208000010A0290BAF1000F3BDD02982E2815D00C
:102090001021FFF7CBFF00282EDB4FF0010B059935
:1020A000014317D0B9F1000F0BDB4A46C11700F00E
:1020B00031FA05430C43A9F1040905E0012004901D
:1020C0000BE008B145F0010501200590049820B906
:1020D000361D02E0049800B1361FB969089808F16E
:1020E00001088847BBF1000FAAF1010A0290C9D08C
:1020F0000999C1F80080C5E70298702808D05028D7
:1021000006D0F96908988847BBF1000F14D04FE05A
:10211000002002900120BBF1000F049009D0B969A2
:10212000089808F101088847AAF10109B9F1000FE0
:1021300007DCF969089888476FF001000BB0BDE82B
:10214000F08F2B2804D02D280CD14FF0FF300490B5
:10215000B969089808F101088847A9F10109B9F19E
:10216000000FE6DD411CE4D00A21FFF75FFF0028E5
:10217000DFDB029908F1010801EB810100EB41006E
:102180000290B969089888470A21FFF74FFF099A1A
:10219000A9F10109B9F1000FC2F8008001DD0028A2
:1021A000E7DAF969089888470499029800FB016604
:1021B00055EA040004D004F04041090002D006E0D2
:1021C000039898E0A40044EA9574AD00B61E04F0AC
:1021D0000041080002D16D196441761E159810F077
:1021E000240F03D04FF00B095C4803E04FF028099F
:1021F0006FF07D008246564507DAAAEB0601894456
:10220000B9F1410F01DD4FF0410901200021A9F191
:10221000010200F07FF9024628400B4621400843A6
:1022200001D0012100E00021501E029143F1FF3155
:1022300028402140084301D0012000E000200299FD
:10224000834651EA0B014FD0002108464FF00000B1
:10225000039900F4400039B100EB80004FF44001D5
:1022600000EBD07001EA60008015012802DD4FF01C
:10227000FF3000E013D0401C36D0029860B3BBF1B1
:10228000000F0CD14A460120002100F043F92840FC
:102290002140084301D0012000E00020E0B10120EE
:1022A0004A46002100F036F9034640190A466141CA
:1022B0002D1A8C4111D3B9F1400F09DD159810F09A
:1022C000240F02D0AAF1340603E0AAF1170600E0B9
:1022D000761C00254FF0004406E05B1E42F1FF3201
:1022E00020EA030521EA0204CAF10100B04206DA3D
:1022F0001B49039808430190002000900EE0039AC8
:10230000C4F3D321E80A0A43164940EA44500A4379
:102310003146CDE90002684603F0E0FA159810F066
:10232000240F0BD01598C00715D13868DDE90012CD
:10233000031D3B600068C0E900120CE002A869467A
:1023400003F066FA1598C00705D13868029A011D96
:102350003960006802604046F0E6000002FCFFFFC2
:102360000000F07F0000F03F2DE9FF4F92461D4630
:1023700085B04FF00041DDE9124BDDE914727F1E9C
:1023800001EA4B50414940F0FF4940EA0108002171
:1023900022F020004928049102D04E2828D04CE099
:1023A0003BA0012607C88DE80700A9690698641CB0
:1023B00088477F1E014606D41DF8060018B121F09B
:1023C000200181420BD0E96906988847032E34D05A
:1023D000082E32D06FF0010009B0BDE8F08F761CF6
:1023E000032E01D0082EE0D1601CCAF80000DCE703
:1023F000A9690698641C88477F1E2AD420F0200013
:10240000412826D1A9690698641C88477F1E20D4DC
:1024100020F020004E281CD1A9690698641C88472A
:102420007F1E48F4002849F48009CAF8004001D40E
:10243000282806D0E969069888475FEACB7012D051
:1024400022E0A9690698641C88477F1E01D40028F1
:1024500003DAE96906988847BCE72928F1D1641CAA
:10246000CAF80040E9E71BF0240F07D02868049958
:10247000031D2B600068C0E9001805E02868021DF4
:102480002A600068C0F800902046A5E70000F07FB1
:10249000494E46494E4954590000000010B50446C3
:1024A000AFF300802046BDE81040FDF7E4BE0028F1
:1024B00001D000F029B8704710B5012805D00021DF
:1024C00003A000F03AF8012010BD09A1F8E70000D0
:1024D00053494752544D454D3A204F7574206F660D
:1024E0002068656170206D656D6F72790000000075
:1024F0003A2048656170206D656D6F727920636F59
:10250000727275707465640001491820ABBEFEE7F5
:1025100026000200B2F120030AD5C2F1200301FA1D
:1025200002F120FA03F300FA02F041EA03017047D6
:1025300000FA03F14FF00000704770B505460C46F5
:102540000A2000E06D1C00F011F835B12878002851
:10255000F8D102E0641C00F009F814B120780028DA
:10256000F8D1BDE870400A20AFF3008008B5694695
:102570008DF800000320ABBE08BD5FEA400C08BF29
:1025800091F0000F4FEA8C234FEAC12243EA5151E8
:102590004FEA1C5018BF00F5F0404FEA300018BF5A
:1025A00041F000415FEA6C5C00F02980BCF1FF3F24
:1025B00008BF40F080407047130C06BF12044FF074
:1025C000100C4FF0000C130E04BF12020CF1080C9B
:1025D000130F04BF12010CF1040C930F04BF9200FF
:1025E0000CF1020CD30F04BF52000CF1010C114688
:1025F0004FF00002A0F11F00A0EB0C00704711F09B
:10260000004F08BF704731F000413FF4D5AF0B0CCD
:1026100006BF09044FF0100C4FF0000C0B0E04BF66
:1026200009020CF1080C0B0F04BF09010CF1040C9A
:102630008B0F04BF89000CF1020CCB0F04BF4900C3
:102640000CF1010CCCF12003A0EB0C0022FA03F3F7
:1026500002FA0CF241EA030100F10100704720F098
:102660007F4C80EA030023F07F47ACEB070303F5C0
:102670007C5300F0004003F1FF032DE980494FEA4D
:10268000154B09B44FEA144325EA0B4E24EA0348DC
:102690000FF2042606EB132749083E785FEA320260
:1026A00003FB0667C7F5000707FB06F64FEA54373A
:1026B0004FEAD64606F1020607FB066CCCF1005C39
:1026C0004FEA1C472CEA074C07FB06F40CFB06F507
:1026D00004EB15464FEA961634BF00204FF0004039
:1026E0004FEAD13706FB07FC4FEA1C4C0CFB0BF7FB
:1026F000D21B03FB0CF761EB07010CFB0EF7B0EBF1
:10270000074072EB17420CFB08F734BFA2EB0742FD
:10271000B2EB074261EB17414FEA0C444FEA9107D5
:1027200006FB07FC4FEA1C4C0CFB0BF7B0EBC74059
:1027300072EB573203FB0CF734BFA2EBC742B2EB8C
:10274000C74261EB57310CFB0EF7B0EBC70072EBE1
:1027500057720CFB08F734BFA2EBC702B2EBC702FB
:1027600061EB5771039F4FEA816141EA921104EBDB
:10277000CC044FEAD1374FEA826206FB07FC42EAFB
:1027800090124FEA80604FEA1C4C0CFB0BF7D21BF7
:1027900003FB0CF761EB07010CFB0EF7B0EB0740F6
:1027A00072EB17420CFB08F734BFA2EB0742B2EB07
:1027B000074261EB17414FEA8C554FEA910704EB52
:1027C0009C2406FB07FC4FEA1C4C0CFB0BF7B0EB00
:1027D000C74072EB573203FB0CF734BFA2EBC74282
:1027E000B2EBC74261EB57310CFB0EF7B0EBC70001
:1027F00072EB57720CFB08F734BFA2EBC702B2EBC7
:10280000C70261EB577115EB4C254FEA816141EA34
:1028100092114FEA82624FEAD13742EA901206FBE8
:1028200007FC44F100044FEA80604FEA1C4C0CFBAB
:102830000BF7D21B03FB0CF761EB07010CFB0EF748
:10284000B0EB074072EB17420CFB08F734BFA2EB6A
:102850000742B2EB074261EB174115EB1C154FEA3B
:10286000813141EA92414FEA823242EA90424FEA94
:1028700080304FEA0C7644F1000448EA03434EEA04
:102880000B484FF0000EB2EB080C71EB030724BFAE
:10289000624639464EEB0E0E4FF0000B00185241C7
:1028A00049414BEB0B0BB2EB080C71EB03077BF1CF
:1028B000000B24BF624639464EEB0E0E4FF0000B64
:1028C0000018524149414BEB0B0BB2EB080C71EB7A
:1028D00003077BF1000B24BF624639464EEB0E0E18
:1028E00051EA020718BF46F0010616EB0E7655F1C5
:1028F000000254F1000103D5BDE88901BDE800885C
:10290000BDE88901BDE80048B619524141EB01011B
:10291000A3F10103704780807F7E7D7C7B7A79788C
:10292000777676757473727171706F6E6E6D6C6C94
:102930006B6A6A6968686766666564646363626136
:102940006160605F5F5E5E5D5D5C5C5B5B5A5A59B7
:102950005958585757565655555554545353525223
:102960005251515050504F4F4F4E4E4D4D4D4C4C7B
:102970004C4B4B4B4A4A4A494949484848474747C4
:102980004746464645454544444444434343434201
:10299000424242414141000046EA0646A3F57053D7
:1029A0004FEA164646EA42564FEAD22242EA4152DE
:1029B00010B54FEAD121A3F1010300F02FF820F068
:1029C000004000F1020C00F0004701EB00501146FE
:1029D000BCF5006F40EA070000D210BDBAF1000F4D
:1029E0000AD01CB503B44FF004004FF004014FF0BF
:1029F00000000FBCBDE810404FF00001BBF1010F1B
:102A0000B9BF04484FF0FF310348002140EA0700F6
:102A100010BD00BFFFFFEF7F0000F07F002B9C4642
:102A200030D477002BD01CB54FEA370703B44FF0F2
:102A300010004FF01001BAF1000F06D0BCF1000FEA
:102A4000DCBF40F0080040F008014FF000000FBC70
:102A5000BDE810400BF1010BBBF1010F08BF5FEAAD
:102A6000170722BF12F1010211F101014FF00041DD
:102A700043F1000300F0004043EA00007047F9D33F
:102A80005708D0E746EA064613F1400F4FEA1646CC
:102A90001FDD13F1200FDFBF16430A46002120334C
:102AA0005B42BED0C3F1200746EA064602FA07F7AA
:102AB0004FEA164646EA0706C3F1200722FA03F258
:102AC00001FA07F721FA03F14FF0000342EA070287
:102AD000A7E746EA020646EA06464FEA164646EAEF
:102AE0000106BCBF46EA0646360C4FF000034FF025
:102AF00000024FF0000194E72DE9804C9A4693467E
:102B000070B491E8380007C831EA400C48BF34EA95
:102B1000430C03D5FFF7A3FDFFF780FFF0BCBDE832
:102B2000008C2DE9804C9A46934670B491E83800A9
:102B300007C831EA400C48BF34EA430C03D5FFF71D
:102B40008EFDFFF729FFF0BCBDE8008C2DE9804C1D
:102B50009A46934670B491E8380007C810F0804F49
:102B600008BF13F0804F03D100F01AF8FFF756FFAB
:102B7000F0BCBDE8008C2DE9804C9A46934670B4B9
:102B800091E8380007C810F0804F08BF13F0804F5D
:102B900003D100F005F8FFF7FFFEF0BCBDE8008CA4
:102BA00020F07F4780EA030023F07F4C07EB0C0303
:102BB000A3F57C5300F00040A3F1FE0392F0000F58
:102BC00000F0B38095F0000F00F077802DE9014907
:102BD0004FEA11404FEA144621EA004800FB06FC88
:102BE00024EA064708FB06F607FB08F800FB07F790
:102BF00018EB06484CEB164C4FEA124B18EB074803
:102C00004FEA15464CEB174022EA0B4E0BFB06FC35
:102C100025EA06470EFB06F607FB0EFE0BFB07F741
:102C20001EEB064E4CEB164C4FF000061EEB074E0B
:102C30004CEB174B18EB0B0840F1000018EB0E0B98
:102C400058EB000840F100008F1A4FF000013CBF24
:102C5000C943661B14BFB5EB040C00213CBFC9433C
:102C6000F61B4FEA17444EEA8E0E27EA04454FEA58
:102C70001C4704FB07622CEA074C05FB07F70CFB1B
:102C800005F604FB0CFC16EB074642EB174216EB6D
:102C90000C4642EB1C421BEB060658EB020241417C
:102CA00046EA9E0601D5BDE80189B619524141EBBD
:102CB0000101A3F10103BDE801894FEA14454FEA80
:102CC000114724EA054621EA074C05FB07F406FBF9
:102CD00007F70CFB06F105FB0CFC11EB074144EB7D
:102CE00017444FEA124711EB0C4144EB1C4422EA13
:102CF000074C05FB07F206FB07F70CFB06F605FB86
:102D00000CFC16EB074642EB174216EB0C4642EB67
:102D10001C456A1854F1000148BF7047B61952416A
:102D200041EB0101A3F10103704795F0000F37D08B
:102D30004FEA11424FEA144721EA024624EA074CBF
:102D400002FB07F106FB07F70CFB06F402FB0CFC89
:102D500014EB074441EB17414FEA154714EB0C44C1
:102D600041EB1C4125EA074C02FB07F506FB07F780
:102D70000CFB06F602FB0CFC16EB074645EB174571
:102D800016EB0C4645EB1C42121951F1000148BFED
:102D90007047B619524141EB0101A3F1010370479D
:102DA0004FEA14454FEA114724EA054621EA074C49
:102DB00005FB07F106FB07F70CFB06F24FF00006D8
:102DC00005FB0CFC12EB074241EB174112EB0C42E6
:102DD00051EB1C4148BF7047921841EB0101A3F130
:102DE0000103704710B54FF48051024800F034FEE3
:102DF00010BD0000000C014010B54FF48051024896
:102E000000F028FE10BD0000000C014010B54FF48A
:102E10008051084800F015FE28B94FF4805105484C
:102E200000F01AFE04E04FF48051024800F012FE58
:102E300010BD0000000C014010B500F009F947205A
:102E400000F0CCF800F050F9012000F08FF80446B3
:102E50004FF6FF7000EA0424002000F087F82044B9
:102E600084B200F01BF9204610BD10B5044600BF27
:102E700000F0EEF8462000F0B1F800F035F9002837
:102E8000F6D1204600F0AAF800F02EF900F006F97D
:102E900010BD000008B50121042002F0EDF930203A
:102EA000ADF8000010208DF8030003208DF802001B
:102EB0006946054800F0E8FC3021034800F0CCFDED
:102EC0000120FFF7D2FF08BD0008014010B5002027
:102ED0000F4908600F48006820F470000D49086031
:102EE0000846006840F44010086000200A49C1F814
:102EF0009401022000F040FA0120054908600220F8
:102F000000F03AFA00200449C1F8900110BD000019
:102F100090012142000801400000214210B500202C
:102F20000F4908600F48006820F470000D490860E0
:102F30000846006840F44010086001200A49C1F8C2
:102F40009401022000F018FA0120054908600220CF
:102F500000F012FA00200449C1F8900110BD0000F1
:102F600090012142000801400000214270B5054651
:102F700000241748006820F47000154908600846CE
:102F8000006840F400000860002616E000201149A7
:102F90000860022000F0F0F901200F49C1F890010B
:102FA0006006040E0B487C38006808B1601CC4B28F
:102FB000012000F0E1F9701CC6B2082EE6DB15B95D
:102FC000FFF7ACFF01E0FFF781FF204670BD000076
:102FD00000080140900121420000214270B50446E2
:102FE0001848006820F47000164908600846006818
:102FF00040F44010086000201349086000251EE0DE
:10300000E00920B101201049091D086003E00020FB
:103010000D49091D08606006040E022000F0ACF99D
:10302000012009490860022000F0A6F900200749A4
:10303000C1F89001022000F09FF9681CC5B2082D6C
:10304000DEDB70BD000801409001214200002142FA
:1030500010B50F48006820F470000D49086008465C
:10306000006840F44010086001200A4908600A49DD
:10307000C1F89001042000F07FF9002005490860A4
:10308000042000F079F900200349C1F8900110BD37
:1030900000080140940121420000214210B50F4870
:1030A000006820F470000D4908600846006840F48C
:1030B0004010086000200A4908600A49C1F89401DC
:1030C000042000F059F90120054908600549C1F8BC
:1030D0009401042000F050F910BD000000080140E8
:1030E000900121420000214210B5002414480068DC
:1030F00020F47000124908600846006840F400009F
:10310000086001200F49086000F036F901200E49DF
:10311000C1F8900100F030F907E0601CC4B2FA2C4D
:1031200003DDFFF7BBFF012010BD064880380068B3
:103130000028F2D10349091F086000BFF4E700002E
:1031400000080140940121420000214208B50121FC
:10315000082002F091F848208DF803004FF48050C9
:10316000ADF8000003208DF802006946014800F028
:103170008BFB08BD000C014000BFFEE710B500242A
:1031800000F02AF804E0601CC4B2012000F0F4F85A
:103190000D48006808B1642CF5DB642C01DB0120CC
:1031A00010BD002404E0601CC4B2012000F0E4F86B
:1031B0000548006808B9642CF5DB642C01DB0120AC
:1031C000EEE70020ECE700003C01214210B500F0E2
:1031D0006FF8FFF7D3FF10BD08B50121052002F0FD
:1031E0004BF80121074800F0DBFB4FF40040ADF83D
:1031F000000004208DF803006946034800F044FBFA
:1032000008BD0000000230000008014008B501219F
:10321000052002F031F80121084800F0C1FB4FF40D
:103220000040ADF8000010208DF8030003208DF859
:1032300002006946024800F027FB08BD000230008A
:103240000008014010B5002404E0601CC4B2012055
:1032500000F092F80D48006808B1642CF5DB0024FA
:1032600004E0601CC4B2012000F086F80748006842
:1032700008B9642CF5DB282000F07EF803480068CC
:1032800008B1012010BD0020FCE700003C012142F4
:1032900070B50024002506E06006040EFFF7D2FF9B
:1032A0000443681CC5B2082DF6DB204670BD000043
:1032B00010B5FFF7ABFF002006490860142000F0AE
:1032C0004FF801200449C1F8BC011E2000F054F859
:1032D00010BD0000BC0121420000214270470000E7
:1032E000002100B9704720F07F400E4A1288424307
:1032F0004FF0E0235A6100229A6101221A6100BF57
:103300004FF0E022116901F001021AB101F480329C
:10331000002AF5D000224FF0E0231A619A6100BF25
:10332000E0E70000240000204FF0E020006920F0DA
:1033300004004FF0E02108610920074908700846A1
:10334000007800EB4001C1EBC0104FF6FF7101EABD
:10335000C00002490880704722000020240000209D
:1033600000B5034603E04FF47A7000F005F8181E2C
:10337000A3F10103F7D100BD00EBC001C9004FF07C
:10338000E0225161002191610521116100BF4FF0E0
:10339000E021096901F480310029F8D004214FF0BF
:1033A000E02211617047000010B580210348FDF74D
:1033B0002FFB00200249088010BD0000CC0A00202D
:1033C000A808002070B50546002400BF00F06EF983
:1033D00080B90DA10E48FDF728FA044654B13A21F0
:1033E0002046FDF706FA044614B1641C204670BD61
:1033F0000020FCE70520FFF773FF681E85B2002D53
:10340000E4DC0020F3E700004950442C00000000F9
:10341000CC0A002008B50121042001F02DFF102066
:103420008DF803000220ADF8000003208DF80200A3
:1034300069463D4800F028FA002202213A4800F08F
:103440000DFBFA20FFF74CFF01220221364800F065
:1034500005FB4FF4FA70FFF743FFFFF7A5FF33A119
:10346000344802F075F903E04FF4FA70FFF738FFC3
:1034700031A132A000F0CCF80028F5D131A12D48BF
:1034800002F066F92EA132A000F0C2F84FF4FA70F3
:10349000FFF726FF2AA131A000F0BAF84FF4FA7026
:1034A000FFF71EFF31A1234802F052F903E04FF469
:1034B000FA70FFF715FF20A12FA000F0A9F800284F
:1034C000F5D131A11B4802F043F903E04FF4FA7043
:1034D000FFF706FF18A130A000F09AF80028F5D1F8
:1034E00031A1144802F034F903E04FF4FA70FFF709
:1034F000F7FE30A131A000F08BF80028F5D137A1FC
:103500000C4802F025F903E04FF4FA70FFF7E8FEEB
:1035100036A1384800F07CF80028F5D136A10548DE
:1035200002F016F908BD000000080140302E2041CD
:10353000540D0A00003801404F4B000041540D0A61
:1035400000000000312E205253540D0A00000000EC
:1035500041542B5253540D0A0000000041542B4398
:103560004950434C4F53450D0A000000322E204372
:10357000574D4F44450D0A0041542B43574D4F447E
:10358000453D310D0A000000332E2041542B435796
:10359000444843500D0A000041542B4357444843CC
:1035A000503D312C310D0A00342E2043574A4150F2
:1035B0000D0A0000474F54204950000041542B434E
:1035C000574A41503D226C70222C226C70323030B0
:1035D0003130312E2E2E220D0A000000352E2043D0
:1035E000495053544152540D0A000000434F4E4E6F
:1035F00045435400807F0008362E20455350383212
:10360000363620496E6974204F4B0D0A00000000C9
:103610002DE9F04104460D46C8262046FDF717F96E
:1036200087B23A4621460D4802F0B6F80FE000F0A6
:103630003DF848B929460A48FDF7F7F820B1FFF7E9
:10364000B3FE0020BDE8F0810A20FFF749FE301EDE
:10365000A6F10101CEB2EAD10120F3E70044004017
:10366000CC0A002030B589B004460D46FFF79CFE19
:103670002A4608A101A8FCF7FFFE0AA101A8FFF74E
:10368000C7FF20B92A462146074802F085F809B04D
:1036900030BD000041542B43495053454E443D2515
:1036A000640D0A003E000000004400400A48008803
:1036B00008B90120704708480088084909888842ED
:1036C00003D1002004490880F4E703480088034937
:1036D00008800120EEE70000A8080020AA080020CA
:1036E00010B54FF4005000F017F801280AD141033B
:1036F000054800F09DF908B9FFF77EFB4FF4005034
:1037000000F004F810BD0000000C01400149086001
:103710007047000014040140014600200022074BBE
:103720001B6803EA0102054B14331B680B4013B1FD
:103730000AB1012000E000207047000000040140B1
:10374000002123498279002A3AD00A461268036888
:103750009A430B461A600A1D126803689A430B1DB0
:103760001A60027911440A6803681A430A60184A09
:103770000832126803689A43154B08331A601A1D01
:10378000126803689A43124B0C331A604279102A6C
:103790000ED11A1F126803681A430D4B08331A60C2
:1037A0001A1D126803681A43094B0C331A600DE0A6
:1037B0000749427911440A6803681A430A6005E020
:1037C000027911440A6803689A430A60704700004E
:1037D000000401401FB50121082001F04DFD4FF408
:1037E0000050ADF80C0048208DF80F0003208DF834
:1037F0000E0003A9134800F047F80D21012000F046
:1038000023F84FF40050019001208DF80A000020A9
:103810008DF808000C208DF8090001A8FFF790FF33
:103820004FF4A06000F008FF28208DF80000012070
:103830008DF803008DF801008DF80200684600F055
:10384000C3FE1FBD000C014030B500228B071C0FCA
:103850000F2303FA04F20B4B8C1053F824309343DC
:10386000084C8D1044F8253023468C1053F8243032
:103870008C07240F00FA04F42343024C8D1044F803
:10388000253030BD080001402DE9F04102460025F9
:103890000026002000230024002791F803C00CF02C
:1038A0000F0591F803C00CF0100CBCF1000F03D011
:1038B00091F802C04CEA050591F800C0BCF1000F78
:1038C00031D0146800202BE04FF0010C0CFA00F30B
:1038D000B1F800C00CEA03069E4220D183004FF0ED
:1038E0000F0C0CFA03F7BC4305FA03FC4CEA040482
:1038F00091F803C0BCF1280F06D14FF0010C0CFA6F
:1039000000FCC2F814C00AE091F803C0BCF1480FF3
:1039100005D14FF0010C0CFA00FCC2F810C0401C9D
:103920000828D1D31460B1F800C0BCF1FF0F34DD1A
:10393000546800202EE000F1080C4FF0010808FA4E
:103940000CF3B1F800C00CEA03069E4221D18300BB
:103950004FF00F0C0CFA03F7BC4305FA03FC4CEADA
:10396000040491F803C0BCF1280F05D100F1080C44
:1039700008FA0CF8C2F8148091F803C0BCF1480FA3
:1039800007D100F1080C4FF0010808FA0CF8C2F852
:103990001080401C0828CED35460BDE8F0810000A0
:1039A000F0B50A46002300240021002500F000465F
:1039B000B6F1004F02D11D4EF16901E01B4E716856
:1039C000C0F3034583B200F44016B6F5401F08D19A
:1039D00021F07061154E766826F07066134F7E6098
:1039E00012E000F48016B6F5801F06D1032606FA11
:1039F00005F4A14341F0706106E0460D360103FA7B
:103A000006F6B14341F0706122B1460D360103FA6A
:103A100006F6314300F00046B6F1004F02D1034EE6
:103A2000F16101E0014E7160F0BD00000000014055
:103A30000246002093680B400BB1012000E00020FB
:103A4000704702460020D3680B400BB1012000E014
:103A50000020704741617047016170470AB1016100
:103A600000E04161704700BFFEE7000010B54FF471
:103A7000A06000F0E1FDFFF757FC00F04DF802F008
:103A8000AFF84FF4E13002F009FE4FF4E13002F0FC
:103A90005FFEFFF75BFBFFF799FBFFF7FBF90720E2
:103AA000FFF7E3F91020FFF7E0F900F065FE00F002
:103AB000BBFE02A1064801F04BFE10BD204861721A
:103AC000647761726520696E6974204F4B0D0A003E
:103AD0000038014010B501210148FFF7BBFF10BDC0
:103AE0000008014010B501210148FFF7B5FF10BDE6
:103AF0000008014010B501210648FFF7A2FF20B9D8
:103B000001210448FFF7A8FF03E001210148FFF766
:103B1000A1FF10BD0008014008B50121042001F0FB
:103B2000ABFB0121102001F0A7FB10208DF8030052
:103B30000120ADF8000003208DF80200694602481C
:103B4000FFF7A2FE08BD00000008014010B50446C2
:103B5000207B012802D12068FCF7E3FB00202060D5
:103B60006060A060207310BD0246002301230DE0B9
:103B700002F07F000870D2092AB1087840F0800076
:103B80000870491C01E0184670475B1C042BEFDDF0
:103B90004FF0FF30F8E770B504460E460025206868
:103BA00098B9012020733046FCF78CFB2060206818
:103BB000E0B100206060A66003E000202168485565
:103BC0006D1CA068A842F8D810E00220207303E022
:103BD0000020216848556D1CA068A842F8D8002034
:103BE0006060A068B04201D20020206070BD00007B
:103BF0002DE9FF4F83B082468B469146159C0025E8
:103C0000002002900F2701904846FCF720FE0FFA93
:103C100080F8B9F1000F03D1012007B0BDE8F08FA3
:103C200008F10200384487B2109808B145F0020547
:103C3000129878B145F004051298FCF708FEC0B25E
:103C400002901398FCF703FE01460298001D0844F9
:103C5000384487B2119820B1012804D0022808D135
:103C600004E000BF07E045F00C0504E045F0140552
:103C700001E00220D1E700BF149808B145F0240507
:103C8000BAF1000F02D0BBF1000F01D10320C4E74D
:103C900045F0C0055046FCF7DAFD06465846FCF7ED
:103CA000D6FD3044001D384487B239462046FFF720
:103CB00072FF206808B90420AFE739462068FCF796
:103CC000A7FE10216268501C606020688154D4E90E
:103CD0000023D118781FFFF747FF00B20190019829
:103CE000002804DA2046FFF731FF052095E76168D8
:103CF00001980844606000216268501C6060206880
:103D0000815404216268501C6060206881544D21F8
:103D10006268501C60602068815451216268501CA8
:103D200060602068815454216268501C6060206883
:103D300081546268501C606020688154042162686C
:103D4000501C6060206881546168481C6060206875
:103D500045540698010A6268501C606020688154CE
:103D60000698C1B26268501C606020688154C8F334
:103D700007216268501C6060206881546268501C92
:103D80006060206800F80280D4E90012881842467A
:103D90004946FCF738FD60684044606005F0040067
:103DA000B8B30026139808B938A013901298FCF7FE
:103DB0004EFD86B2310A6268501C606020688154F2
:103DC0006268501C606020688654D4E9001288182C
:103DD00032461299FCF717FD606830446060139812
:103DE000FCF735FD86B2310A6268501C60602068BD
:103DF00081546268501C606020688654D4E90012C7
:103E0000881832461399FCF7FEFC60683044606005
:103E100000BF05F08000C8B15046FCF718FD86B21F
:103E2000310A6268501C6060206881546268501CCE
:103E3000606020688654D4E90012881832465146E2
:103E4000FCF7E1FC60683044606000BF05F04000B2
:103E5000C8B15846FCF7FBFC86B2310A6268501CB8
:103E60006060206881546268501C606020688654DD
:103E7000D4E90012881832465946FCF7C4FC606841
:103E80003044606000BF0020C7E600000000000072
:103E90002DE9FF4F83B0834617469946139C0025B2
:103EA00000260020029001908046BBF1000F03D154
:103EB000012007B0BDE8F08F00260AE00498805D7D
:103EC000232803D00498805D2B2801D10220F0E73D
:103ED000761C0498805D0028F0D148F030081198D5
:103EE00008B148F0010806EB0900851C109820B1C4
:103EF000012804D002280AD105E000BF09E048F0FB
:103F00000208AD1C05E048F00408AD1C01E00320E8
:103F1000CFE700BF8FB33878022821D14FF0000AD5
:103F200000BF50460AF1010A385C7D28F9D1AAF198
:103F3000030A0AF1070002900298A9EB000AE81CA4
:103F4000A0EB0A012046FFF726FE206808B90420EE
:103F5000AFE7EA1CA2EB0A012068FCF759FD19E063
:103F6000691D2046FFF717FE206808B90420A0E766
:103F7000691D2068FCF74CFD0CE0FFE7691D204639
:103F8000FFF709FE206808B9042092E7691D206840
:103F9000FCF73EFD6168481C6060206800F8018005
:103FA000D4E9000281182846FFF7DEFD0190019850
:103FB000002804DA2046FFF7C9FD052079E761688B
:103FC000019808446060C6F307216268501C606075
:103FD000206881546268501C606020688654D4E96F
:103FE0000012881832460499FCF70DFC60683044D2
:103FF0006060109860B14FEA1B216268501C6060DD
:10400000206881546268501C6060206800F802B02B
:10401000C7B1387802280BD1D4E900128818394684
:10402000029AFCF77EFC616802980844606009E02F
:10403000D4E9001288184A463946FCF772FC6068D9
:1040400048446060002034E770B505460C46042102
:104050002046FFF7A0FD206808B9012070BD70213F
:104060006268501C60602068815402216268501CA4
:1040700060602068815429126268501C606020686A
:1040800081546268501C6060206885540020E5E718
:1040900070B505460C4604212046FFF77CFD2068DC
:1040A00008B9012070BD62216268501C6060206800
:1040B000815402216268501C60602068815429127A
:1040C0006268501C6060206881546268501C6060A7
:1040D000206885540020E5E72DE9FF5F80461746FC
:1040E00099460E9C0026B246B3460025B8F1000F53
:1040F00003D1012004B0BDE8F09F0BE057F8250084
:1041000008B90220F6E757F82500FCF7A0FB0644A3
:10411000681CC5B24D45F1DB09EB4900801C00EB82
:10412000060A0AF105012046FFF735FD206808B9A7
:104130000320DFE782216268501C606020688154A0
:10414000D4E9000281185046FFF70EFD0FFA80FBFC
:10415000BBF1000F04DA2046FFF7F8FC0420C9E7A2
:104160006068584460604FEA18216268501C6060C3
:10417000206881546268501C6060206800F80280EA
:10418000002524E057F82500FCF761FB0646C6F33E
:1041900007216268501C6060206881546268501C6E
:1041A000606020688654D4E90023D01857F82510A1
:1041B0003246FCF728FB6068304460600198C1B269
:1041C0006268501C606020688154681CC5B24D450F
:1041D000D8DB00208EE7F0B504460D4626460123C5
:1041E00000201060002114E0775C07F07F07106862
:1041F00007FB03001060705C00F0800008B9481CE9
:10420000F0BDDB01B3F5001F02D36FF00100F7E74B
:10421000491CA942E8DB4FF0FF30F1E72DE9F843F4
:1042200080460C4615461E462F2108F10600FCF775
:10423000E0FA07460020009017B90120BDE8F88396
:104240007F1C6A46042108F10100FFF7C4FF252006
:10425000FCF738F82060206808B90220EEE7252135
:104260002068FCF7D5FB242239462068FCF759FB6F
:10427000243700982C3830803188481CFCF722F80D
:104280002860286820B92068FCF74BF80320D5E7A0
:104290003288511C2868FCF7BBFB328839462868F5
:1042A000FCF73FFB0020C9E701464878022801D00F
:1042B00001207047887810B18878012801D1C8782A
:1042C000F7E7FF20F5E700002DE9FC5F81460D468A
:1042D00014461E46DDE90C8B99F8000000F00F0A29
:1042E000002001900AF008000090CAF341008BF80A
:1042F000000001AA042109F10100FFF76CFF484406
:10430000471C0198022802D30AF0010010B1FF20D7
:10431000BDE8FC9F7878397840EA01202080208829
:10432000801C0199884201D9FF20F1E754A1B81CF3
:10433000FCF77BFA08B10F20EAE79BF8000020B1F8
:1043400001283DD0022877D13BE0009808B1FF203A
:10435000DEE72188481CFBF7B5FF2860286808B90C
:10436000FF20D5E72288511C2868FCF751FB2288E2
:10437000B91C2868FCF7D5FA0198801E2188401ADC
:10438000A8F80000B8F80010481CFBF79BFF30604D
:10439000306820B92868FBF7C4FFFF20B8E7B8F8F9
:1043A0000020511C3068FCF733FBB8F80020B4F84B
:1043B00000C0BB1C0CEB03013068FCF7B2FA4FE005
:1043C00000BF2088801C0199884201D9FF209FE707
:1043D0002088C01C395C2088801C385C41EA0021A0
:1043E0000E9801800E9808B9FF2091E72188481C9B
:1043F000FBF768FF2860286808B9FF2088E7228853
:10440000511C2868FCF704FB2288B91C2868FCF7BB
:1044100088FA0198001F2188401AA8F80000B8F80F
:104420000010481CFBF74EFF3060306828B9286840
:10443000FBF777FFFF206BE710E0B8F80020511C76
:104440003068FCF7E5FAB8F80020B4F800C03B1D6E
:104450000CEB03013068FCF764FA01E0FF2057E73A
:1044600000BF2B212846FCF7C4F920B92321284698
:10447000FCF7BFF908B1FF204AE7002048E7000039
:10448000246372657100000001464878022801D05B
:1044900001207047887820B9C8780A2801D1002007
:1044A000F7E70120F5E701464878022801D001200E
:1044B0007047887820B9C8780A2801D10020F7E72A
:1044C0000120F5E701464878022801D00120704715
:1044D000887820B9C8780A2801D10020F7E70120A0
:1044E000F5E702465078022801D001207047907805
:1044F000B0EB112F05D1D078CBB2984201D100207A
:10450000F4E70120F2E70000F8B50446FF27207821
:104510000511012D01DB0E2D01DD3846F8BD032DFF
:1045200024D1002000906A460421601CFFF753FE4E
:104530002044461C0098022803D3207800F0010094
:1045400008B1FF20EAE77078317840EA0120801C4A
:104550000099884201D9FF20E0E706A1B01CFCF7D2
:1045600064F908B10F2700E0032700E02F46384622
:10457000D4E7000024637265710000000146FF204B
:104580008A78A2B9CA78142A11D10A7932B1012ADB
:1045900005D0022A04D0802A06D103E000BF00BF64
:1045A000002003E0012001E0022000BF00BF7047AF
:1045B000014601208A781AB9CA781E2A00D1002043
:1045C000704700BFFEE7704770B5002100230F223F
:1045D000C47804B3154C246804F4E064C4F5E064C2
:1045E000210AC1F10403CA40447804FA03F1847833
:1045F0001440214309010E4C0678A155047804F0BB
:104600001F050124AC4005786D11AD0005F1E025D2
:10461000C5F8004109E0047804F01F050124AC400E
:10462000044D0678761145F8264070BD0CED00E08B
:1046300000E400E080E100E002490143024A116029
:10464000704700000000FA050CED00E070B5002492
:104650000EE00021204600F067F9002504E000206C
:1046600000F048FA681CC5B2802DF8DB601CC4B2AB
:10467000082CEEDB70BD000008B50121082000F019
:10468000FBFD14208DF8030003208DF802004FF489
:104690008070ADF8000069460A48FFF7F5F84FF45E
:1046A0000070ADF8000069460648FFF7EDF80122FA
:1046B00011020448FFF7D2F9012251020148FFF725
:1046C000CDF908BD000C014070B50546002415E089
:1046D0008020204100EA05024FF400710E48FFF7E8
:1046E000BDF9012211020C48FFF7B8F900224FF47E
:1046F00080710948FFF7B2F9601CC4B2082CE7DBEF
:10470000012211020448FFF7A9F900224FF4807139
:104710000148FFF7A3F970BD000C014010B501225C
:1047200051020A48FFF79AF9012211020748FFF7E0
:1047300095F900224FF400710448FFF78FF9002229
:104740004FF480710148FFF789F910BD000C01405A
:1047500010B500224FF400710648FFF77FF90122DF
:1047600011020448FFF77AF9012251020148FFF7CC
:1047700075F910BD000C014070B5002406E000255D
:1047800000E06D1CB5F57A7FFBD3641CB4F57A7F2D
:10479000F5D3FFF771FFAE2000F09CF9D52000F0B3
:1047A00099F9802000F096F9A82000F093F93F20B5
:1047B00000F090F9D32000F08DF9002000F08AF984
:1047C000402000F087F9A12000F084F9C82000F013
:1047D00081F9DA2000F07EF9122000F07BF98120C7
:1047E00000F078F9CF2000F075F9D92000F072F9C7
:1047F000F12000F06FF9DB2000F06CF9302000F0C0
:1048000069F9A42000F066F9A62000F063F98D2074
:1048100000F060F9142000F05DF9AF2000F05AF9C3
:10482000FFF714FF70BD000010B5FFF70FFF252242
:104830000221122000F09EF826220221242000F0FE
:1048400099F827220221362000F094F84FF47A706C
:10485000FEF746FDFFF7FAFE00221146104600F073
:1048600089F801220021122000F084F825A20621F7
:10487000012000F00FF904220021482000F07AF80E
:1048800003220221002000F075F8012202211220EB
:1048900000F070F81BA20621022000F0FBF81AA21B
:1048A0000A21022000F0F6F805220421002000F081
:1048B00061F807220421122000F05CF811A2062101
:1048C000032000F0E7F811A20B21032000F0E2F82A
:1048D0001F220621002000F04DF820220621122080
:1048E00000F048F821220621242000F043F805A218
:1048F0000821042000F0CEF805A20A21042000F0CF
:10490000C9F810BD3A000000250000004C780000F6
:104910004F46460010B50246012000E050430B1EF2
:10492000A1F10101FAD110BD70B505460C4645F064
:10493000B00000F0CFF8102141EA141000F0CAF8DE
:1049400004F00F0000F0C6F870BD70B504460D46C7
:1049500005F1B000002100F0B1F8102141EA141077
:10496000002100F0ABF804F00F00002100F0A6F8E1
:1049700070BD00002DE9F04180460E461546002727
:1049800031464046FFF7E1FF00240AE0124A02EBFD
:104990008511085D012100F091F8781CC7B2601CF8
:1049A000C4B2102CF2DB701CC1B24046FFF7CDFF41
:1049B00000240CE06900491C074A02EB4111085D24
:1049C000012100F07BF8781CC7B2601CC4B2102C27
:1049D000F0DBBDE8F0810000270000202DE9F04168
:1049E00005460E461746721ED206110E6A1E520664
:1049F000100EFFF799FF002409E0A7F12001134AE8
:104A000002EB0111085D00F075F8601CC4B2082CBF
:104A1000F3DB721ED206110E6A1E012303EB420263
:104A2000D0B2FFF781FF00240BE0A7F12001074A75
:104A300002EB011204F10801505C00F05BF8601C0D
:104A4000C4B2082CF1DBBDE8F081000081720008DF
:104A50002DE9F04780460E4617461D46002415E016
:104A6000281B411E0A20FFF755FFB7FBF0F00A2173
:104A7000B0FBF1F201FB120000F130093019C1B2B4
:104A80004A464046FFF7AAFF601CC4B2AC42E7DBCF
:104A9000BDE8F0872DE9F04107460E461546002493
:104AA00007E02A5D3019C1B23846FFF797FF601C56
:104AB000C4B2285D0028F4D1BDE8F08170B5044689
:104AC0000D461DB1E0B200F015F802E0E0B200F0D2
:104AD00001F870BD10B50446FFF720FE7820FFF7FF
:104AE000F3FD0020FFF7F0FD2046FFF7EDFDFFF797
:104AF0002FFE10BD10B50446FFF710FE7820FFF71B
:104B0000E3FD4020FFF7E0FD2046FFF7DDFDFFF766
:104B10001FFE10BD30B58BB00020079008900990A3
:104B20000A9001253048314B31A236A1009041480E
:104B300000F00EFE07A8002102910391CDE90410B8
:104B400000912B02284A0191284929A0FFF750F82B
:104B5000002842D1089A91B20798FEF783FDFA2007
:104B6000FEF730FC0446002C33D02046FFF7CCFC87
:104B700002282ED12046FFF797FB062823D2DFE834
:104B800000F003090E13181D2BA12A4800F0E0FDC8
:104B900000251DE02DA1274800F0DAFD18E032A124
:104BA000244800F0D5FD13E038A1224800F0D0FDE4
:104BB0000EE03EA11F4800F0CBFD09E044A11D48D6
:104BC00000F0C6FD04E04DA11A4800F0C1FD00BF91
:104BD00000BF07A8FEF7BAFF03E04FA1154800F099
:104BE000B7FD28460BB030BD0C800008C87F000818
:104BF00053544D3332266B30687977346F347542B5
:104C0000680000004F6E654E65745F4465764C69C0
:104C10006E6B0D0A50524F49443A2025732C0941BE
:104C20005549463A2025732C0944455649443A25AE
:104C3000730D0A0000380140546970733A09C1AC21
:104C4000BDD3B3C9B9A60D0A000000005741524EAA
:104C50003A09C1ACBDD3CAA7B0DCA3BAD0ADD2E982
:104C6000B4EDCEF30D0A00005741524E3A09C1ACE3
:104C7000BDD3CAA7B0DCA3BAB7C7B7A8B5C4636C25
:104C800069656E7469640D0A000000005741524E58
:104C90003A09C1ACBDD3CAA7B0DCA3BAB7FECEF106
:104CA000C6F7CAA7B0DC0D0A000000005741524EFB
:104CB0003A09C1ACBDD3CAA7B0DCA3BAD3C3BBA762
:104CC000C3FBBBF2C3DCC2EBB4EDCEF30D0A0000B4
:104CD0005741524E3A09C1ACBDD3CAA7B0DCA3BA02
:104CE000B7C7B7A8C1B4BDD328B1C8C8E7746F6B44
:104CF000656EB7C7B7A8290D0A0000004552523AA1
:104D000009C1ACBDD3CAA7B0DCA3BACEB4D6AAB48D
:104D1000EDCEF30D0A0000005741524E3A094D51B5
:104D200054545F5061636B6574436F6E6E6563745A
:104D3000204661696C65640D0A00000070B588B09A
:104D400005460C46002004900590069007902346E7
:104D50002A4610A1174800F0FBFC2046FBF777FD20
:104D6000064604A8012100220223CDE90032CDE944
:104D700002103346224629460A20FFF789F838B93F
:104D8000059A91B20498FEF76DFC04A8FEF7DEFECA
:104D900008B070BD5075626C69736820546F70699B
:104DA000633A2025732C204D73673A2025730D0A32
:104DB00000000000003801402DE9F0438FB00746A5
:104DC00000200B900C900D900E900A900990089086
:104DD0000790002606900025002480463846FFF7FD
:104DE00093FB0646F01E0D2872D2DFE800F01C8708
:104DF00090AAC6EBCFEBDDEBEBEB070007AB0AAA03
:104E000009A93846FFF70AFA05465DB9BDF81C0046
:104E1000009085A18D48DDE9092300F099FC0BA8DD
:104E2000FEF794FED1E08A4806A907AA0AABCDE9AD
:104E30000021029008AA09A93846FFF745FA05465D
:104E4000002D5AD1BDF81C000A99CDE90010BDF81B
:104E5000203080A17D48099A00F07AFC0A9800F081
:104E6000BDFD8B4908600846006840B900F098FD18
:104E700081464A4687A1754800F06AFC3DE08AA158
:104E80008348006800F094FD89490860084600687E
:104E900088A142696D4800F05BFC85490968086992
:104EA00089A1FBF7C2FCA0B188A17948006800F095
:104EB0007FFD7F49086008460068406910B1FEF731
:104EC00011FE01E0FEF706FE00208249087010E0A6
:104ED00078E07EA16E48006800F06AFD74490860C1
:104EE00008460068406910B1FDF786FF01E0FDF754
:104EF00079FF6748006800F027FD66E03846FFF755
:104F0000C3FA18B974A1514800F022FC5DE038469C
:104F1000FFF7D8FAA0B978A14C4800F019FC0BA90A
:104F20000A20FFF7B5F858B979A1484800F010FCFD
:104F30000C9A91B20B98FEF795FB0BA8FEF706FEB4
:104F400043E0434801883846FFF7CBFAA0B976A181
:104F50003E4800F0FDFB0BA90A20FFF775F858B991
:104F600077A13A4800F0F4FB0C9A91B20B98FEF747
:104F700079FB0BA8FEF7EAFD27E03846FFF793FA26
:104F800018B976A1314800F0E3FB1EE03846FFF780
:104F9000F5FA20B977A12D4800F0DAFB03E07CA1F7
:104FA0002A4800F0D5FB10E03846FFF701FB20B996
:104FB0007EA1264800F0CCFB03E083A1234800F04B
:104FC000C7FB02E04FF0FF3500BF00BFFEF7ECF972
:104FD000681C10B90FB0BDE8F0837D210A98FBF77B
:104FE00008FC0446A4B1681C90B1641C06E014F8E7
:104FF000012B404608F1010803A90A542078302803
:1050000002DB20783928F2DD03A8FBF7E5FB8046B8
:105010000F2E01D0032E05D10998FBF782F90A98CB
:10502000FBF77FF900BFD5E7636D6469643A20251B
:10503000732C207265713A2025732C207265715F84
:105040006C656E3A2025640D0A00000000380140AE
:10505000C8080020746F7069633A2025732C20748F
:105060006F7069635F6C656E3A2025642C207061F7
:10507000796C6F61643A2025732C207061796C6FB4
:1050800061645F6C656E3A2025640D0A00000000C3
:10509000C00800204572726F72206265666F72658B
:1050A0003A5B25735D0A00007461726765740000E5
:1050B000C40800206A736F6E5F76616C75653B2073
:1050C0005B25735D0A0000004C45440076616C75F9
:1050D0006500000005000020546970733A094D51C5
:1050E0005454205075626C6973682053656E642057
:1050F0004F4B0D0A00000000546970733A09526565
:1051000076205075626C6973685265630D0A000001
:10511000546970733A0953656E64205075626C6906
:10512000736852656C0D0A00546970733A095265D0
:1051300076205075626C69736852656C0D0A0000C8
:10514000546970733A0953656E64205075626C69D6
:105150007368436F6D700D0A00000000546970732E
:105160003A09526576205075626C697368436F6DB9
:10517000700D0A00546970733A094D51545420530C
:105180007562736372696265204F4B0D0A000000FF
:10519000546970733A094D515454205375627363C6
:1051A00072696265204572720D0A0000546970735D
:1051B0003A094D51545420556E53756273637269A8
:1051C0006265204F4B0D0A00546970733A094D51C6
:1051D000545420556E53756273637269626520453D
:1051E00072720D0A0000000070B586B004460D46CC
:1051F00000260020029003900490059007E054F8E8
:1052000026200DA1124800F0A3FA701CC6B2AE42CF
:10521000F5DB02A82B462246022100901420FEF75F
:105220005BFF38B9039A91B20298FEF71BFA02A805
:10523000FEF78CFC06B070BD5375627363726962D1
:105240006520546F7069633A2025730D0A000000D1
:10525000003801407047000029B1064AD269024374
:10526000044BDA6104E0034AD2698243014BDA61FC
:10527000704700000010024029B1064A92690243BB
:10528000044B9A6104E0034A92698243014B9A619C
:10529000704700000010024030B5002100220024B9
:1052A00000232D4D6D6805F00C0121B1042905D0B6
:1052B000082923D105E0294D056022E0274D05602E
:1052C0001FE0254D6D6805F47012234D6D6805F4DF
:1052D0008034022505EB92421CB9214D55430560EF
:1052E0000BE01D4D6D6805F400351DB11C4D554397
:1052F000056002E0194D5543056002E0174D056059
:1053000000BF00BF144D6D6805F0F0010909154D8F
:105310006B5C0568DD4045600F4D6D6805F4E0612C
:10532000090A104D6B5C4568DD4085600A4D6D686B
:1053300005F46051C90A0B4D6B5C4568DD40C560E2
:10534000054D6D6805F44041890B074D6B5CC568E0
:10535000B5FBF3F5056130BD0010024000127A0084
:1053600000093D000D0000201D0000207CB5054611
:105370000E46FDF79DFFFDF701FF28BB002405E069
:10538000FDF786FF0DF80400601CC4B2052CF7DBA6
:105390009DF800009DF8011008449DF80210084493
:1053A0009DF8031008449DF8041088420ED19DF822
:1053B000000030709DF8010070709DF802002870A8
:1053C0009DF80300687001E001207CBD0020FCE72F
:1053D000704710B500F002F810BD00000CB50020B9
:1053E000019000903348006840F4803031490860F3
:1053F00000BF3048006800F4003000900198401C65
:105400000190009818B90198B0F5A06FF1D1294822
:10541000006800F4003010B10120009001E000208D
:1054200000900098012843D12348006840F0100004
:10543000214908600846006820F00300086008461B
:10544000006840F0020008601A4840681949486046
:105450000846406848600846406840F480604860FC
:105460000846406820F47C1048600846406840F4D4
:10547000E81048600846006840F08070086000BF8F
:105480000C48006800F000700028F9D00948406816
:1054900020F00300074948600846406840F00200D9
:1054A000486000BF0348406800F00C000828F9D1AC
:1054B0000CBD0000001002400020024070470000B8
:1054C00010B51348006840F0010011490860084613
:1054D0004068104908400E494860084600680E4977
:1054E00008400B4908600846006820F480200860E6
:1054F0000846406820F4FE0048604FF41F008860B2
:10550000FFF767FF4FF000600449086010BD00001E
:10551000001002400000FFF8FFFFF6FE08ED00E07B
:1055200010B540F22551044800F050F818B1202180
:10553000014800F029F810BD0038014010B540F2D4
:1055400025510E4800F042F8B0B10D48008880287F
:1055500002D300200A4908800848001D0088C1B213
:10556000074802880088401C054B18800548815474
:105570002021024800F008F810BD0000004400405F
:10558000A8080020CC0A002001F40072B2F5007FC8
:1055900000D100BFCA430280704721B1828942F422
:1055A0000052828104E082894DF6FF731A408281A5
:1055B000704702460020B1F5007F00D100BF13887C
:1055C0000B400BB1012000E00020704770B502468F
:1055D000002400230025002040F66A16B14200D1C5
:1055E00000BFC1F3421501F01F03012606FA03F3C1
:1055F000012D02D19689334006E0022D02D1168A90
:10560000334001E0968A33400C12012606FA04F476
:105610001688344013B10CB1012000E0002070BDA9
:10562000F0B50346002400260025002040F66A1746
:10563000B94200D100BF1846C1F3421401F01F0661
:10564000012707FA06F5012C01D10C3004E0022CE9
:1056500001D1103000E014301AB107682F43076001
:1056600002E00768AF430760F0BD00002DE9F04796
:1056700086B005460E460024A24600BFA14600277C
:10568000B08900B100BF2F462C8A4CF6FF70044051
:10569000F08804432C82AC894EF6F3100440B088A5
:1056A00031890843718908430443AC81AC8A4FF6C1
:1056B000FF400440B0890443AC8201A8FFF7ECFD31
:1056C0001F48874202D1DDF810A001E0DDF80CA0F0
:1056D000A88900F4004040B10AEBCA0000EB0A10B0
:1056E00031684900B0FBF1F807E00AEBCA0000EBB3
:1056F0000A1031688900B0FBF1F86420B8FBF0F0C3
:1057000004012009642101FB1089A88900F40040EC
:1057100040B1322000EBC900B0FBF1F000F007000F
:10572000044308E0322000EB09106421B0FBF1F0E3
:1057300000F00F0004432C8106B0BDE8F0870000A4
:1057400000380140C1F308028280704700BFFEE7C5
:105750000FB430B5CBB0054601AC50A800904FF463
:10576000947101A8009B4F9AFAF76CFE00200090FC
:105770000BE014F8011B2846FFF7E4FF00BF4021AF
:105780002846FFF716FF0028F9D020780028F0D12E
:105790004BB030BC5DF814FB2DE9F04107460C46D8
:1057A000154600260DE014F8011B3846FFF7CAFF26
:1057B00000BF40213846FFF7FCFE0028F9D0701CDE
:1057C00086B2AE42EFDBBDE8F081490050EAC1206D
:1057D00018BF04204A0D18BF40F0010040F2FF72CC
:1057E000B2EB515F08BF40F00200012808BF05205E
:1057F000704740F2013200204FF0E04101F0E5BC7B
:10580000024A0020110701F0E0BC000001FDFFFF8B
:1058100010B50446D1E9000100F002F8206010BD87
:10582000F8B504460D466A4600F082F900987E30CD
:10583000009000281EDC002213462046294601F075
:105840003DFA17D0002140F608004FF00000064650
:105850002046294601F094F8044640F6080006EA7E
:1058600000014FF0000034F0004004BF0220FCF7BC
:10587000D7FB29E00098FF2828DB002108464FF0DD
:10588000000000F44006002213462046294601F09D
:1058900011FB8CBF002501250220FCF7C1FB4FF056
:1058A000FF4446B1002D0CBF4FF400004FF48000C0
:1058B000B04218BF084C042108464FF00000002DEC
:1058C00004BF84F00040F8BD2046F8BD20462946BC
:1058D000BDE8F84001F054B8FFFF7F7F10B50446E3
:1058E0000A46D4E90003194600F0EAF9C4E90001C8
:1058F00010BD30380A2801D20120704700207047BF
:10590000014609B1086808B90020704719B1D1E90A
:105910000120904201D30846F7E702E08868401C66
:10592000886041B1D1E90120904204D28A680868B8
:10593000805C2028F2DDD1E90120904202D1886804
:10594000401E88600846E0E770B50446002522E066
:105950002568A08900F4807020B9A06810B1A06803
:10596000FFF7F2FFA08900F4807028B9206918B110
:105970000A4A206951688847A08900F4007028B954
:10598000206A18B1054A206A51688847034841686F
:10599000204688472C46002CDAD170BDB408002080
:1059A000024800680149496808447047AC08002073
:1059B00070B504460D4600222946204600F0E6F860
:1059C00070BD70B5044628202168884705461DB182
:1059D00028212846FBF73EF8284670BD10B504463E
:1059E00000221146204600F06BF810BD2DE9F0476B
:1059F0008AB004460E46154698461C2103A8FBF7BC
:105A000029F8002700202C490860486004B106B935
:105A100032E00394049600200590284A07CA07AB99
:105A200007C32648FFF7CDFF074607B924E003A8C0
:105A300000F008FE8246FFF763FF8146494638467C
:105A400000F062FD00B917E0B8F1000F0BD003A819
:105A5000FFF756FFDDE90410884203D20599039849
:105A6000405C00B108E01DB1059903980844286026
:105A700038460AB0BDE8F08717B13846FFF764FF33
:105A8000C4B1019400200290DDE90410884202D2E2
:105A90000598029004E0049810B10498401E02900A
:105AA0001DB1DDE90101084428600348DDE9011268
:105AB00006C000BF0020DCE7AC080020B4080020CE
:105AC0002DE9F04104460D46164614B90020BDE804
:105AD000F0812046FAF7BBFE471C33462A4639467A
